{
  "contractName": "FirmAndFunctions",
  "abi": [
    {
      "constant": true,
      "inputs": [
        {
          "name": "",
          "type": "uint256"
        }
      ],
      "name": "mOrderDetailsMapping",
      "outputs": [
        {
          "name": "mfirmId",
          "type": "uint256"
        },
        {
          "name": "orderId",
          "type": "uint256"
        },
        {
          "name": "mproductDetails",
          "type": "string"
        },
        {
          "name": "mnumberOfUnits",
          "type": "uint256"
        },
        {
          "name": "totalPrice",
          "type": "uint256"
        }
      ],
      "payable": false,
      "stateMutability": "view",
      "type": "function"
    },
    {
      "constant": true,
      "inputs": [
        {
          "name": "",
          "type": "uint256"
        }
      ],
      "name": "fOrderDetailsMapping",
      "outputs": [
        {
          "name": "ffirmAddress",
          "type": "address"
        },
        {
          "name": "orderId",
          "type": "uint256"
        },
        {
          "name": "fpriceOfOneUnit",
          "type": "uint256"
        },
        {
          "name": "ftotalPrice",
          "type": "uint256"
        }
      ],
      "payable": false,
      "stateMutability": "view",
      "type": "function"
    },
    {
      "constant": true,
      "inputs": [
        {
          "name": "",
          "type": "address"
        }
      ],
      "name": "firmPaymentMapping",
      "outputs": [
        {
          "name": "",
          "type": "uint256"
        }
      ],
      "payable": false,
      "stateMutability": "view",
      "type": "function"
    },
    {
      "constant": true,
      "inputs": [
        {
          "name": "",
          "type": "uint256"
        }
      ],
      "name": "firmPaymentAddressStorage",
      "outputs": [
        {
          "name": "",
          "type": "address"
        }
      ],
      "payable": false,
      "stateMutability": "view",
      "type": "function"
    },
    {
      "constant": true,
      "inputs": [
        {
          "name": "",
          "type": "address"
        }
      ],
      "name": "firmAddressStorage",
      "outputs": [
        {
          "name": "",
          "type": "uint256"
        }
      ],
      "payable": false,
      "stateMutability": "view",
      "type": "function"
    },
    {
      "inputs": [
        {
          "name": "",
          "type": "uint256"
        }
      ],
      "payable": false,
      "stateMutability": "view",
      "type": "function",
      "constant": true,
      "name": "firmOrderAddressMapping",
      "outputs": [
        {
          "name": "",
          "type": "address"
        }
      ]
    },
    {
      "anonymous": false,
      "inputs": [
        {
          "indexed": false,
          "name": "",
          "type": "uint256"
        },
        {
          "indexed": false,
          "name": "amount",
          "type": "uint256"
        }
      ],
      "name": "finalOrderSummaryMapping",
      "type": "function",
      "constant": true,
      "outputs": [
        {
          "name": "firmId",
          "type": "uint256"
        },
        {
          "name": "orderId",
          "type": "uint256"
        },
        {
          "name": "productDetails",
          "type": "string"
        },
        {
          "name": "numberOfUnits",
          "type": "uint256"
        },
        {
          "name": "priceOfOneUnit",
          "type": "uint256"
        },
        {
          "name": "totalPrice",
          "type": "uint256"
        },
        {
          "name": "firmAddress",
          "type": "address"
        }
      ],
      "payable": false,
      "stateMutability": "view"
    },
    {
      "anonymous": false,
      "inputs": [
        {
          "indexed": false,
          "name": "message",
          "type": "string"
        },
        {
          "indexed": false,
          "name": "amount",
          "type": "uint256"
        }
      ],
      "name": "firmWithdrawedFromContract",
      "type": "constructor",
      "payable": false,
      "stateMutability": "nonpayable"
    },
    {
      "constant": false,
      "inputs": [
        {
          "name": "message",
          "type": "string",
          "indexed": false
        },
        {
          "name": "amount",
          "type": "uint256",
          "indexed": false
        },
        {
          "name": "_firmAddress",
          "type": "address"
        }
      ],
      "name": "paidToFirm",
      "outputs": [],
      "payable": false,
      "stateMutability": "nonpayable",
      "type": "event",
      "anonymous": false
    },
    {
      "constant": true,
      "inputs": [
        {
          "name": "message",
          "type": "string",
          "indexed": false
        },
        {
          "indexed": false,
          "name": "amount",
          "type": "uint256"
        }
      ],
      "name": "firmWithdrawedFromContract",
      "outputs": [
        {
          "name": "_fId",
          "type": "uint256"
        },
        {
          "name": "_fName",
          "type": "string"
        },
        {
          "name": "_fAddress",
          "type": "address"
        }
      ],
      "payable": false,
      "stateMutability": "view",
      "type": "event",
      "anonymous": false
    },
    {
      "constant": false,
      "inputs": [
        {
          "name": "_firmId",
          "type": "uint256"
        },
        {
          "name": "_firmAddress",
          "type": "address"
        },
        {
          "name": "_orderId",
          "type": "uint256"
        },
        {
          "name": "_productDetails",
          "type": "string"
        },
        {
          "name": "_numberOfUnits",
          "type": "uint256"
        }
      ],
      "name": "sendOrderDetailsToFirm",
      "outputs": [],
      "payable": false,
      "stateMutability": "nonpayable",
      "type": "function"
    },
    {
      "constant": false,
      "inputs": [
        {
          "name": "_firmAddress",
          "type": "address"
        },
        {
          "name": "_orderId",
          "type": "uint256"
        },
        {
          "name": "_priceOfOneUnit",
          "type": "uint256"
        },
        {
          "name": "_totalPrice",
          "type": "uint256"
        }
      ],
      "name": "sendOrderDetailsToSchool",
      "outputs": [
        {
          "name": "_balance",
          "type": "uint256"
        }
      ],
      "payable": false,
      "stateMutability": "nonpayable",
      "type": "function"
    },
    {
      "constant": false,
      "inputs": [
        {
          "name": "_orderId",
          "type": "uint256"
        },
        {
          "name": "_firmAddressInput",
          "type": "address"
        }
      ],
      "name": "setFinalOrderSummary",
      "outputs": [],
      "payable": false,
      "stateMutability": "nonpayable",
      "type": "function"
    },
    {
      "constant": true,
      "inputs": [
        {
          "name": "_orderId",
          "type": "uint256"
        },
        {
          "name": "_toFirmAddress",
          "type": "address"
        },
        {
          "name": "_orderId",
          "type": "uint256"
        },
        {
          "name": "_productDetails",
          "type": "string"
        },
        {
          "name": "_numberOfUnits",
          "type": "uint256"
        },
        {
          "name": "_priceOfOneUnit",
          "type": "uint256"
        },
        {
          "name": "_totalPrice",
          "type": "uint256"
        }
      ],
      "name": "getFinalOrderSummary",
      "outputs": [
        {
          "name": "_oId",
          "type": "uint256"
        },
        {
          "name": "_fId",
          "type": "uint256"
        },
        {
          "name": "_fAddress",
          "type": "address"
        },
        {
          "name": "_pDetails",
          "type": "string"
        },
        {
          "name": "_numOfUnits",
          "type": "uint256"
        },
        {
          "name": "_priceOfOneUnit",
          "type": "uint256"
        },
        {
          "name": "_totalPrice",
          "type": "uint256"
        }
      ],
      "payable": false,
      "stateMutability": "view",
      "type": "function"
    },
    {
      "constant": false,
      "inputs": [
        {
          "name": "_firmId",
          "type": "uint256"
        },
        {
          "name": "_firmName",
          "type": "string"
        },
        {
          "name": "_firmAddress",
          "type": "address"
        }
      ],
      "name": "setFirmDetails",
      "outputs": [
        {
          "name": "_oId",
          "type": "uint256"
        },
        {
          "name": "_productDetails",
          "type": "string"
        },
        {
          "name": "_numOfUnits",
          "type": "uint256"
        }
      ],
      "payable": false,
      "stateMutability": "nonpayable",
      "type": "function"
    },
    {
      "constant": true,
      "inputs": [
        {
          "name": "_firmId",
          "type": "uint256"
        },
        {
          "name": "oId",
          "type": "uint256"
        },
        {
          "name": "pDts",
          "type": "string"
        },
        {
          "name": "noOfUnits",
          "type": "uint256"
        },
        {
          "name": "pOfOneUnit",
          "type": "uint256"
        },
        {
          "name": "tP",
          "type": "uint256"
        }
      ],
      "name": "getFirmDetails",
      "outputs": [
        {
          "name": "_fId",
          "type": "uint256"
        },
        {
          "name": "_fName",
          "type": "string"
        },
        {
          "name": "_fAddress",
          "type": "address"
        }
      ],
      "payable": false,
      "stateMutability": "view",
      "type": "function"
    },
    {
      "constant": false,
      "inputs": [
        {
          "name": "_firmId",
          "type": "uint256"
        },
        {
          "name": "_firmAddressInput",
          "type": "address"
        }
      ],
      "name": "paymentToFirm",
      "outputs": [
        {
          "name": "_oId",
          "type": "uint256"
        },
        {
          "name": "_productDetails",
          "type": "string"
        },
        {
          "name": "_numOfUnits",
          "type": "uint256"
        },
        {
          "name": "_priceOfOneUnit",
          "type": "uint256"
        },
        {
          "name": "_totalPrice",
          "type": "uint256"
        }
      ],
      "payable": true,
      "stateMutability": "payable",
      "type": "function"
    },
    {
      "constant": true,
      "inputs": [
        {
          "name": "_orderId",
          "type": "uint256"
        }
      ],
      "name": "firmContractBalance",
      "outputs": [
        {
          "name": "_balance",
          "type": "uint256"
        },
        {
          "name": "_productDetails",
          "type": "string"
        },
        {
          "name": "_numberOfUnits",
          "type": "uint256"
        },
        {
          "name": "_priceOfOneUnit",
          "type": "uint256"
        },
        {
          "name": "_totalPrice",
          "type": "uint256"
        }
      ],
      "payable": false,
      "stateMutability": "view",
      "type": "function"
    },
    {
      "constant": false,
      "inputs": [
        {
          "name": "_firmId",
          "type": "uint256"
        },
        {
          "name": "_firmAddressInput",
          "type": "address"
        }
      ],
      "name": "firmPaymentWithdraw",
      "outputs": [],
      "payable": false,
      "stateMutability": "nonpayable",
      "type": "function"
    }
  ],
  "bytecode": "0x608060405234801561001057600080fd5b50336000806101000a81548173ffffffffffffffffffffffffffffffffffffffff021916908373ffffffffffffffffffffffffffffffffffffffff1602179055506119f6806100606000396000f3fe6080604052600436106100e6576000357c0100000000000000000000000000000000000000000000000000000000900463ffffffff1680631687ca76146100eb5780632a15a0c4146101b45780632c4dba02146101ef5780634f53328f1461024a57806365333be8146102da57806365b92f971461033f5780636cb90e03146103ba578063827a3c2c1461041f578063923412111461052557806395723c0714610594578063adc721ac1461069e578063b5fe750314610790578063b814581e1461080b578063b8d77a6b14610836578063c1471dbf14610884578063dc44101c14610972575b600080fd5b3480156100f757600080fd5b506101246004803603602081101561010e57600080fd5b8101908080359060200190929190505050610a7c565b6040518085815260200184815260200180602001838152602001828103825284818151815260200191508051906020019080838360005b8381101561017657808201518184015260208101905061015b565b50505050905090810190601f1680156101a35780820380516001836020036101000a031916815260200191505b509550505050505060405180910390f35b3480156101c057600080fd5b506101ed600480360360208110156101d757600080fd5b8101908080359060200190929190505050610b44565b005b3480156101fb57600080fd5b506102486004803603604081101561021257600080fd5b8101908080359060200190929190803573ffffffffffffffffffffffffffffffffffffffff169060200190929190505050610d48565b005b34801561025657600080fd5b506102836004803603602081101561026d57600080fd5b8101908080359060200190929190505050610f15565b604051808573ffffffffffffffffffffffffffffffffffffffff1673ffffffffffffffffffffffffffffffffffffffff16815260200184815260200183815260200182815260200194505050505060405180910390f35b3480156102e657600080fd5b50610329600480360360208110156102fd57600080fd5b81019080803573ffffffffffffffffffffffffffffffffffffffff169060200190929190505050610f65565b6040518082815260200191505060405180910390f35b34801561034b57600080fd5b506103786004803603602081101561036257600080fd5b8101908080359060200190929190505050610f7d565b604051808273ffffffffffffffffffffffffffffffffffffffff1673ffffffffffffffffffffffffffffffffffffffff16815260200191505060405180910390f35b3480156103c657600080fd5b50610409600480360360208110156103dd57600080fd5b81019080803573ffffffffffffffffffffffffffffffffffffffff169060200190929190505050610fb0565b6040518082815260200191505060405180910390f35b34801561042b57600080fd5b50610523600480360360a081101561044257600080fd5b8101908080359060200190929190803573ffffffffffffffffffffffffffffffffffffffff169060200190929190803590602001909291908035906020019064010000000081111561049357600080fd5b8201836020820111156104a557600080fd5b803590602001918460018302840111640100000000831117156104c757600080fd5b91908080601f016020809104026020016040519081016040528093929190818152602001838380828437600081840152601f19601f82011690508083019250505050505050919291929080359060200190929190505050610fc8565b005b34801561053157600080fd5b506105926004803603608081101561054857600080fd5b81019080803573ffffffffffffffffffffffffffffffffffffffff1690602001909291908035906020019092919080359060200190929190803590602001909291905050506110ee565b005b3480156105a057600080fd5b506105cd600480360360208110156105b757600080fd5b81019080803590602001909291905050506111b0565b604051808881526020018781526020018673ffffffffffffffffffffffffffffffffffffffff1673ffffffffffffffffffffffffffffffffffffffff16815260200180602001858152602001848152602001838152602001828103825286818151815260200191508051906020019080838360005b8381101561065d578082015181840152602081019050610642565b50505050905090810190601f16801561068a5780820380516001836020036101000a031916815260200191505b509850505050505050505060405180910390f35b3480156106aa57600080fd5b5061078e600480360360608110156106c157600080fd5b8101908080359060200190929190803590602001906401000000008111156106e857600080fd5b8201836020820111156106fa57600080fd5b8035906020019184600183028401116401000000008311171561071c57600080fd5b91908080601f016020809104026020016040519081016040528093929190818152602001838380828437600081840152601f19601f820116905080830192505050505050509192919290803573ffffffffffffffffffffffffffffffffffffffff16906020019092919050505061132e565b005b34801561079c57600080fd5b506107c9600480360360208110156107b357600080fd5b8101908080359060200190929190505050611488565b604051808273ffffffffffffffffffffffffffffffffffffffff1673ffffffffffffffffffffffffffffffffffffffff16815260200191505060405180910390f35b34801561081757600080fd5b506108206114bb565b6040518082815260200191505060405180910390f35b6108826004803603604081101561084c57600080fd5b8101908080359060200190929190803573ffffffffffffffffffffffffffffffffffffffff1690602001909291905050506114da565b005b34801561089057600080fd5b506108bd600480360360208110156108a757600080fd5b8101908080359060200190929190505050611639565b60405180848152602001806020018373ffffffffffffffffffffffffffffffffffffffff1673ffffffffffffffffffffffffffffffffffffffff168152602001828103825284818151815260200191508051906020019080838360005b8381101561093557808201518184015260208101905061091a565b50505050905090810190601f1680156109625780820380516001836020036101000a031916815260200191505b5094505050505060405180910390f35b34801561097e57600080fd5b506109ab6004803603602081101561099557600080fd5b81019080803590602001909291905050506117a4565b60405180888152602001878152602001806020018681526020018581526020018481526020018373ffffffffffffffffffffffffffffffffffffffff1673ffffffffffffffffffffffffffffffffffffffff168152602001828103825287818151815260200191508051906020019080838360005b83811015610a3b578082015181840152602081019050610a20565b50505050905090810190601f168015610a685780820380516001836020036101000a031916815260200191505b509850505050505050505060405180910390f35b6006602052806000526040600020600091509050806000015490806001015490806002018054600181600116156101000203166002900480601f016020809104026020016040519081016040528092919081815260200182805460018160011615610100020316600290048015610b345780601f10610b0957610100808354040283529160200191610b34565b820191906000526020600020905b815481529060010190602001808311610b1757829003601f168201915b5050505050908060030154905084565b600760008281526020019081526020016000206001015460066000838152602001908152602001600020600101541415610d4557600660008281526020019081526020016000206000015460086000838152602001908152602001600020600001819055506006600082815260200190815260200160002060010154600860008381526020019081526020016000206001018190555060066000828152602001908152602001600020600201600860008381526020019081526020016000206002019080546001816001161561010002031660029004610c2592919061189e565b50600660008281526020019081526020016000206003015460086000838152602001908152602001600020600301819055506007600082815260200190815260200160002060000160009054906101000a900473ffffffffffffffffffffffffffffffffffffffff166008600083815260200190815260200160002060060160006101000a81548173ffffffffffffffffffffffffffffffffffffffff021916908373ffffffffffffffffffffffffffffffffffffffff16021790555060076000828152602001908152602001600020600201546008600083815260200190815260200160002060040181905550600760008281526020019081526020016000206003015460086000838152602001908152602001600020600501819055505b50565b806000600460008373ffffffffffffffffffffffffffffffffffffffff1673ffffffffffffffffffffffffffffffffffffffff1681526020019081526020016000205414151515610d9857600080fd5b8173ffffffffffffffffffffffffffffffffffffffff166003600085815260200190815260200160002060009054906101000a900473ffffffffffffffffffffffffffffffffffffffff1673ffffffffffffffffffffffffffffffffffffffff16141515610e0557600080fd5b3373ffffffffffffffffffffffffffffffffffffffff166108fc3073ffffffffffffffffffffffffffffffffffffffff16319081150290604051600060405180830381858888f19350505050158015610e62573d6000803e3d6000fd5b507f99ba01a5de8e0bde23724fdce747e5981e718b8045ccca4b8ab8f09b04a2428b3073ffffffffffffffffffffffffffffffffffffffff163160405180806020018381526020018281038252602e8152602001807f57746864726177656420616d6f756e742066726f6d20636f6e7472656374207481526020017f6f206669726d20616464726573730000000000000000000000000000000000008152506040019250505060405180910390a1505050565b60076020528060005260406000206000915090508060000160009054906101000a900473ffffffffffffffffffffffffffffffffffffffff16908060010154908060020154908060030154905084565b60016020528060005260406000206000915090505481565b60036020528060005260406000206000915054906101000a900473ffffffffffffffffffffffffffffffffffffffff1681565b60046020528060005260406000206000915090505481565b836000600460008373ffffffffffffffffffffffffffffffffffffffff1673ffffffffffffffffffffffffffffffffffffffff168152602001908152602001600020541415151561101857600080fd5b3373ffffffffffffffffffffffffffffffffffffffff166000809054906101000a900473ffffffffffffffffffffffffffffffffffffffff1673ffffffffffffffffffffffffffffffffffffffff1614151561107357600080fd5b6080604051908101604052808781526020018581526020018481526020018381525060066000868152602001908152602001600020600082015181600001556020820151816001015560408201518160020190805190602001906110d8929190611925565b5060608201518160030155905050505050505050565b6080604051908101604052808573ffffffffffffffffffffffffffffffffffffffff168152602001848152602001838152602001828152506007600085815260200190815260200160002060008201518160000160006101000a81548173ffffffffffffffffffffffffffffffffffffffff021916908373ffffffffffffffffffffffffffffffffffffffff1602179055506020820151816001015560408201518160020155606082015181600301559050506111aa83610b44565b50505050565b60008060006060600080600060086000898152602001908152602001600020600101549650600860008981526020019081526020016000206000015495506008600089815260200190815260200160002060060160009054906101000a900473ffffffffffffffffffffffffffffffffffffffff169450600860008981526020019081526020016000206002018054600181600116156101000203166002900480601f0160208091040260200160405190810160405280929190818152602001828054600181600116156101000203166002900480156112d15780601f106112a6576101008083540402835291602001916112d1565b820191906000526020600020905b8154815290600101906020018083116112b457829003601f168201915b50505050509350600860008981526020019081526020016000206003015492506008600089815260200190815260200160002060040154915060086000898152602001908152602001600020600501549050919395979092949650565b3373ffffffffffffffffffffffffffffffffffffffff166000809054906101000a900473ffffffffffffffffffffffffffffffffffffffff1673ffffffffffffffffffffffffffffffffffffffff1614151561138957600080fd5b6060604051908101604052808481526020018381526020018273ffffffffffffffffffffffffffffffffffffffff16815250600260008581526020019081526020016000206000820151816000015560208201518160010190805190602001906113f4929190611925565b5060408201518160020160006101000a81548173ffffffffffffffffffffffffffffffffffffffff021916908373ffffffffffffffffffffffffffffffffffffffff16021790555090505082600460008373ffffffffffffffffffffffffffffffffffffffff1673ffffffffffffffffffffffffffffffffffffffff16815260200190815260200160002081905550505050565b60056020528060005260406000206000915054906101000a900473ffffffffffffffffffffffffffffffffffffffff1681565b60003073ffffffffffffffffffffffffffffffffffffffff1631905090565b3373ffffffffffffffffffffffffffffffffffffffff166000809054906101000a900473ffffffffffffffffffffffffffffffffffffffff1673ffffffffffffffffffffffffffffffffffffffff1614151561153557600080fd5b806000600460008373ffffffffffffffffffffffffffffffffffffffff1673ffffffffffffffffffffffffffffffffffffffff168152602001908152602001600020541415151561158557600080fd5b6000341415151561159557600080fd5b34600160008473ffffffffffffffffffffffffffffffffffffffff1673ffffffffffffffffffffffffffffffffffffffff16815260200190815260200160002060008282540192505081905550816003600085815260200190815260200160002060006101000a81548173ffffffffffffffffffffffffffffffffffffffff021916908373ffffffffffffffffffffffffffffffffffffffff160217905550505050565b6000606060003373ffffffffffffffffffffffffffffffffffffffff166000809054906101000a900473ffffffffffffffffffffffffffffffffffffffff1673ffffffffffffffffffffffffffffffffffffffff1614151561169a57600080fd5b60026000858152602001908152602001600020600001549250600260008581526020019081526020016000206001018054600181600116156101000203166002900480601f01602080910402602001604051908101604052809291908181526020018280546001816001161561010002031660029004801561175d5780601f106117325761010080835404028352916020019161175d565b820191906000526020600020905b81548152906001019060200180831161174057829003601f168201915b505050505091506002600085815260200190815260200160002060020160009054906101000a900473ffffffffffffffffffffffffffffffffffffffff1690509193909250565b6008602052806000526040600020600091509050806000015490806001015490806002018054600181600116156101000203166002900480601f01602080910402602001604051908101604052809291908181526020018280546001816001161561010002031660029004801561185c5780601f106118315761010080835404028352916020019161185c565b820191906000526020600020905b81548152906001019060200180831161183f57829003601f168201915b5050505050908060030154908060040154908060050154908060060160009054906101000a900473ffffffffffffffffffffffffffffffffffffffff16905087565b828054600181600116156101000203166002900490600052602060002090601f016020900481019282601f106118d75780548555611914565b8280016001018555821561191457600052602060002091601f016020900482015b828111156119135782548255916001019190600101906118f8565b5b50905061192191906119a5565b5090565b828054600181600116156101000203166002900490600052602060002090601f016020900481019282601f1061196657805160ff1916838001178555611994565b82800160010185558215611994579182015b82811115611993578251825591602001919060010190611978565b5b5090506119a191906119a5565b5090565b6119c791905b808211156119c35760008160009055506001016119ab565b5090565b9056fea165627a7a72305820060c13469d7ed5efcf10cc485eee6af2a80f89e3a0d2de3f7f2236ad88bda0a80029",
  "source": "pragma solidity ^0.5.0;\n\ncontract FirmAndFunctions{\n                                                // Variables //\n    \n    \n  \n    address managementAddress;\n    \n    \n                                        //          Mappings          //\n                                        \n                                        \n                                        \n    mapping(address => uint)  public  firmPaymentMapping;\n    // mapping(uint=>orderDetails) public orderDetailsMapping;\n    mapping(uint=>firmProfile) firmProfileMapping;\n    mapping(uint=>address) public firmPaymentAddressStorage;\n    mapping(address=>uint) public firmAddressStorage;\n    mapping(uint=>address) public firmOrderAddressMapping;\n   \n        \n        constructor() public {\n            managementAddress=msg.sender;\n        }    \n        \n                                        // Modifiers //\n        \n         modifier onlyManagement{\n        require(managementAddress==msg.sender);\n        _;\n    }\n    \n     modifier minimumBalance{\n        require(address(this).balance > 0);\n        _;\n    }\n     modifier checkAddress(address who) { \n        require(firmAddressStorage[who] != 0); \n        _; \n        \n    }\n    \n  \n    \n       \n                                            // Structures//\n                             \n      struct firmProfile{\n          \n        uint firmId;\n        string firmName;\n        address firmAddress;\n        \n    }\n    \n   \n       struct mOrderDetails{\n        \n        uint mfirmId;\n        uint orderId;\n        string mproductDetails;\n        uint mnumberOfUnits;\n       }\n       mapping(uint=>mOrderDetails) public mOrderDetailsMapping;\n       function sendOrderDetailsToFirm(uint _firmId,address _firmAddress,uint _orderId,string memory _productDetails,uint _numberOfUnits) public checkAddress(_firmAddress) onlyManagement{\n           mOrderDetailsMapping[_orderId]=mOrderDetails(_firmId,_orderId,_productDetails,_numberOfUnits);\n       } \n       \n       struct fOrderDetails{\n        \n       address ffirmAddress;\n        uint orderId;\n        uint fpriceOfOneUnit;\n        uint ftotalPrice;\n        \n       }\n       mapping(uint=>fOrderDetails) public fOrderDetailsMapping;\n       function sendOrderDetailsToSchool(address _firmAddress,uint _orderId,uint _priceOfOneUnit,uint _totalPrice) public\n       {\n           fOrderDetailsMapping[_orderId]=fOrderDetails(_firmAddress,_orderId,_priceOfOneUnit,_totalPrice);\n           setFinalOrderSummary(_orderId);\n       }\n       \n struct finalOrderSummary\n    {\n        uint firmId;\n        uint orderId;\n        string productDetails;\n        uint numberOfUnits;\n        uint priceOfOneUnit;\n        uint totalPrice;\n        address firmAddress;\n       \n    }\n    mapping(uint => finalOrderSummary) public finalOrderSummaryMapping;\n    \n    function setFinalOrderSummary(uint _orderId)public{\n        \n        if(mOrderDetailsMapping[_orderId].orderId==fOrderDetailsMapping[_orderId].orderId)\n        {\n            \n            finalOrderSummaryMapping[_orderId].firmId=mOrderDetailsMapping[_orderId].mfirmId;\n            \n            finalOrderSummaryMapping[_orderId].orderId=mOrderDetailsMapping[_orderId].orderId;\n            finalOrderSummaryMapping[_orderId].productDetails=mOrderDetailsMapping[_orderId].mproductDetails;\n            finalOrderSummaryMapping[_orderId].numberOfUnits=mOrderDetailsMapping[_orderId].mnumberOfUnits;\n            finalOrderSummaryMapping[_orderId].firmAddress=fOrderDetailsMapping[_orderId].ffirmAddress;\n            finalOrderSummaryMapping[_orderId].priceOfOneUnit=fOrderDetailsMapping[_orderId].fpriceOfOneUnit;\n            finalOrderSummaryMapping[_orderId].totalPrice=fOrderDetailsMapping[_orderId].ftotalPrice;\n        \n        }\n        \n        \n        \n    }\n    function getFinalOrderSummary(uint _orderId) public view returns(uint _oId,uint _fId,address _fAddress,string memory _pDetails,uint _numOfUnits,uint _priceOfOneUnit,uint _totalPrice)\n    {\n        _oId=finalOrderSummaryMapping[_orderId].orderId;\n        _fId=finalOrderSummaryMapping[_orderId].firmId;\n        _fAddress=finalOrderSummaryMapping[_orderId].firmAddress;\n        _pDetails=finalOrderSummaryMapping[_orderId].productDetails;\n        _numOfUnits=finalOrderSummaryMapping[_orderId].numberOfUnits;\n        _priceOfOneUnit=finalOrderSummaryMapping[_orderId].priceOfOneUnit;\n        _totalPrice=finalOrderSummaryMapping[_orderId].totalPrice;\n    }\n    \n                     \n    \n   \n    \n                                      //             Events          //\n                                      \n    \n    event paidToFirm(string message, uint amount);\n    event firmWithdrawedFromContract(string message, uint amount);\n    \n    \n    \n   \n                                                // Functions //\n      \n   \n                                            // Management Function #10 //\n              \n     function setFirmDetails(uint _firmId,string memory _firmName,address _firmAddress) public onlyManagement{\n        \n        firmProfileMapping[_firmId]=firmProfile(_firmId,_firmName,_firmAddress);\n        firmAddressStorage[_firmAddress]=_firmId;\n        \n      }\n      \n                                        //  Management Function #9 //\n                                        \n      function getFirmDetails(uint _firmId) public onlyManagement view returns(uint _fId,string memory _fName,address _fAddress)\n      {\n          _fId=firmProfileMapping[_firmId].firmId;\n          _fName=firmProfileMapping[_firmId].firmName;\n          _fAddress=firmProfileMapping[_firmId].firmAddress;\n      }\n    \n    \n   \n                                        // Management Function #8 //\n                                        \n     function paymentToFirm(uint _firmId,address _firmAddressInput) public onlyManagement checkAddress(_firmAddressInput) payable  {\n        require(msg.value!=0);\n        firmPaymentMapping[_firmAddressInput] += msg.value;\n        firmPaymentAddressStorage[_firmId]=_firmAddressInput;\n        \n     }      \n     \n                                    // Firm Function #4 //\n                                    \n      function firmContractBalance() public view returns(uint _balance) {\n        _balance = address(this).balance;\n    }\n                                        // Firm Function #3 //\n                                        \n                                        \n    function firmPaymentWithdraw(uint _firmId,address _firmAddressInput) public checkAddress(_firmAddressInput){\n        require(firmPaymentAddressStorage[_firmId]==_firmAddressInput);\n        msg.sender.transfer(address(this).balance);\n        emit firmWithdrawedFromContract(\"Wthdrawed amount from contrect to firm address\",address(this).balance);\n  \n        \n    }\n                                        // Management Function #7 //\n                                        \n                                        \n    // function sendOrderDetailsToFirm(uint _firmId,address _toFirmAddress,uint _orderId,string memory _productDetails,uint _numberOfUnits,uint _priceOfOneUnit,uint _totalPrice) public onlyManagement checkAddress(_toFirmAddress){\n    //     orderDetailsMapping[_orderId]=orderDetails(_orderId,_productDetails,_numberOfUnits,_priceOfOneUnit,_totalPrice);\n    //     firmOrderAddressMapping[_firmId]=_toFirmAddress;\n        \n    // }\n                                        // Firm Function #2  //\n                                        \n    // function getOrderDetailsFromSchool(uint _firmId,uint _orderId) public view returns(uint _oId,string memory _productDetails,uint _numOfUnits){\n    //     require(firmOrderAddressMapping[_firmId] == msg.sender);\n    //     _oId = orderDetailsMapping[_orderId].orderId;\n    //     _productDetails = orderDetailsMapping[_orderId].productDetails;\n    //     _numOfUnits = orderDetailsMapping[_orderId].numberOfUnits;\n    // }\n    \n                                        //  Firm Function #1   //\n                                        \n                                        \n    // function sendOSummaryToSchool(uint fId,uint oId,string memory pDts,uint noOfUnits,uint pOfOneUnit,uint tP) public checkAddress(msg.sender) {\n    //     require(firmOrderAddressMapping[fId] == msg.sender);\n        \n        \n    //     orderDetailsMapping[oId] = orderDetails(oId,pDts,noOfUnits,pOfOneUnit,tP);\n        \n    // }\n                                         //  Management Function #6 //\n                                \n                                \n    // function getOrderSummaryFromFirm(uint _orderId) public onlyManagement view returns(uint _oId,string memory _productDetails,uint _numOfUnits,uint _priceOfOneUnit,uint _totalPrice){\n    //     _oId=orderDetailsMapping[_orderId].orderId;\n    //     _productDetails=orderDetailsMapping[_orderId].productDetails;\n    //     _numOfUnits=orderDetailsMapping[_orderId].numberOfUnits;\n    //     _priceOfOneUnit=orderDetailsMapping[_orderId].priceOfOneUnit;\n    //     _totalPrice=_numOfUnits*_priceOfOneUnit;\n    // }\n    \n                                    // Student Function #3  //\n                                    \n                                    \n                                    \n    // function getOrderDetailsForStudent(uint _orderId) public view returns (uint _oId,string memory _productDetails, uint _numberOfUnits,uint _priceOfOneUnit,uint _totalPrice){\n    //     _oId=orderDetailsMapping[_orderId].orderId;\n    //     _productDetails = orderDetailsMapping[_orderId].productDetails;\n    //     _numberOfUnits = orderDetailsMapping[_orderId].numberOfUnits;\n    //     _priceOfOneUnit = orderDetailsMapping[_orderId].priceOfOneUnit;\n    //     _totalPrice = orderDetailsMapping[_orderId].totalPrice;\n    // }\n                                        \n  \n    \n}\n                                        // CONTRACT //\n\n\n                    // Student Pays Fees to the Management //\n\ncontract StudentPaysFee{\n                                        //  Variables //\n                                        \n    address managementAddress;\n    \n                                        // Mappings //\n                                        \n    mapping(uint => uint)  public  studentPaymentMapping;\n    \n    \n    \n    \n    \n                                    //   Events     //\n                                    \n    event feesPaid(string message, uint amount);\n    event feeWithdrawed(string message, uint amount);\n     \n     \n    \n     \n     \n    constructor() public{\n        managementAddress = msg.sender;    \n    }\n                                    //  Modifiers //\n                                    \n                                    \n    modifier onlyManagement{\n        require(managementAddress == msg.sender);\n        _;\n    }\n    \n    modifier minimumBalance{\n        require(address(this).balance > 0);\n        _;\n    }\n    \n                        // Student Function #2 //\n                        \n    function feePayment(uint _roll) public payable {\n        studentPaymentMapping[_roll] += msg.value;\n        emit feesPaid(\"Payment completed\", msg.value);\n    }\n    \n                            // Management Function #5 //\n                            \n    function studentFeeDetails(uint _roll) public onlyManagement view returns (uint _rollNumber,uint _feePayed){\n        _rollNumber=_roll;\n        _feePayed = studentPaymentMapping[_roll];\n        \n        \n    }\n                            //  Management Function #4 //\n                            \n    function feeWithdraw() public onlyManagement minimumBalance {\n        emit feeWithdrawed(\"Fees Withdrawed\", address(this).balance);\n        msg.sender.transfer(address(this).balance);\n        emit feeWithdrawed(\"Balance in contract\", address(this).balance);\n    }\n                            \n                            //  Management Function #3 //\n                            \n    function managementContractBalance() public view onlyManagement returns(uint _balance) {\n        _balance = address(this).balance;\n    }\n    \n}\n\n\n\n                            //  SFTS Contract Inherits all the other contracts //\n\ncontract SchoolFundTrackingSystem is StudentPaysFee,FirmAndFunctions{\n    \n    enum gender {male, female, other}\n    address managementAddress;\n    constructor() public {\n        managementAddress=msg.sender;\n    }\n    modifier notManagement{\n        require(msg.sender!=managementAddress);\n        _;\n    }\n    struct studentProfile {\n        uint rollNumber;\n        uint adhaarNum;\n        string name;\n        uint age;\n        bool indian;\n        gender myGender;\n    }\n    \n    mapping(uint => studentProfile) public  student;\n    mapping(uint=>studentProfile) public mappingAdhaar;\n    mapping(uint=>address) public studentAddressStorage;\n    \n   \n                                         // Management Function #1//\n                                         \n    function setStudent(uint _roll,uint _adhaarNum,string memory _name,uint _age,bool _indian,gender _myGender) public onlyManagement {\n        student[_roll]=studentProfile(_roll,_adhaarNum,_name,_age,_indian,_myGender);\n        \n        \n       \n    }\n                                        // Student Function #1 //\n    // function studentDetailsFillUp(uint _roll,uint _adhaarNum,string memory _name,uint _age,bool _indian,gender _myGender) public notManagement{\n    //      mappingAdhaar[_adhaarNum]=studentProfile(_roll,_adhaarNum,_name,_age,_indian,_myGender);\n    //      studentAddressStorage[_adhaarNum]=msg.sender;\n         \n         \n    // }\n                                        // Management Function #2 //\n    \n    function getStudent(uint _roll) public view returns (uint _rollNumber,address _studentAddress,uint _adhaarNum,string memory _name, uint _age, bool _indian, gender _myGender){\n       \n        _rollNumber=student[_roll].rollNumber;   \n        _adhaarNum=student[_roll].adhaarNum;\n        _name = student[_roll].name;\n        _age = student[_roll].age;\n        _indian = student[_roll].indian;\n        _myGender = student[_roll].myGender;\n        _studentAddress=studentAddressStorage[_adhaarNum];\n     \n    }\n    \n}",
  "sourcePath": "/home/yk272/Desktop/SFTS/contracts/SFTS.sol",
  "compiler": {
    "name": "solc",
    "version": "0.5.0+commit.1d4f565a.Emscripten.clang"
  },
  "schemaVersion": "3.0.9",
  "updatedAt": "2019-05-28T08:00:13.812Z",
  "devdoc": {
    "methods": {}
  },
  "userdoc": {
    "methods": {}
  }
}