{
  "contractName": "PayingFees",
  "abi": [
    {
      "constant": true,
      "inputs": [
        {
          "name": "",
          "type": "uint256"
        }
      ],
      "name": "payments",
      "outputs": [
        {
          "name": "",
          "type": "uint256"
        }
      ],
      "payable": false,
      "stateMutability": "view",
      "type": "function"
    },
    {
      "inputs": [],
      "payable": false,
      "stateMutability": "nonpayable",
      "type": "constructor"
    },
    {
      "anonymous": false,
      "inputs": [
        {
          "indexed": false,
          "name": "message",
          "type": "string"
        },
        {
          "indexed": false,
          "name": "amount",
          "type": "uint256"
        }
      ],
      "name": "feesPaid",
      "type": "event"
    },
    {
      "anonymous": false,
      "inputs": [
        {
          "indexed": false,
          "name": "message",
          "type": "string"
        },
        {
          "indexed": false,
          "name": "amount",
          "type": "uint256"
        }
      ],
      "name": "feeWithdrawed",
      "type": "event"
    },
    {
      "constant": false,
      "inputs": [
        {
          "name": "_roll",
          "type": "uint256"
        }
      ],
      "name": "feePayment",
      "outputs": [],
      "payable": true,
      "stateMutability": "payable",
      "type": "function"
    },
    {
      "constant": true,
      "inputs": [
        {
          "name": "_roll",
          "type": "uint256"
        }
      ],
      "name": "studentFeeDetails",
      "outputs": [
        {
          "name": "_feePayed",
          "type": "uint256"
        }
      ],
      "payable": false,
      "stateMutability": "view",
      "type": "function"
    },
    {
      "constant": false,
      "inputs": [],
      "name": "feeWithdraw",
      "outputs": [
        {
          "name": "_balance",
          "type": "uint256"
        }
      ],
      "payable": false,
      "stateMutability": "nonpayable",
      "type": "function"
    },
    {
      "constant": true,
      "inputs": [],
      "name": "balance",
      "outputs": [
        {
          "name": "_balance",
          "type": "uint256"
        }
      ],
      "payable": false,
      "stateMutability": "view",
      "type": "function"
    }
  ],
  "bytecode": "0x608060405234801561001057600080fd5b50336000806101000a81548173ffffffffffffffffffffffffffffffffffffffff021916908373ffffffffffffffffffffffffffffffffffffffff160217905550610539806100606000396000f3fe60806040526004361061006d576000357c0100000000000000000000000000000000000000000000000000000000900463ffffffff1680633ebebd19146100725780636561e6ba146100c157806387d81789146100d8578063a795310f14610127578063b69ef8a814610155575b600080fd5b34801561007e57600080fd5b506100ab6004803603602081101561009557600080fd5b8101908080359060200190929190505050610180565b6040518082815260200191505060405180910390f35b3480156100cd57600080fd5b506100d66101f8565b005b3480156100e457600080fd5b50610111600480360360208110156100fb57600080fd5b81019080803590602001909291905050506103e7565b6040518082815260200191505060405180910390f35b6101536004803603602081101561013d57600080fd5b81019080803590602001909291905050506103ff565b005b34801561016157600080fd5b5061016a610493565b6040518082815260200191505060405180910390f35b60003373ffffffffffffffffffffffffffffffffffffffff166000809054906101000a900473ffffffffffffffffffffffffffffffffffffffff1673ffffffffffffffffffffffffffffffffffffffff161415156101dd57600080fd5b60016000838152602001908152602001600020549050919050565b3373ffffffffffffffffffffffffffffffffffffffff166000809054906101000a900473ffffffffffffffffffffffffffffffffffffffff1673ffffffffffffffffffffffffffffffffffffffff1614151561025357600080fd5b60003073ffffffffffffffffffffffffffffffffffffffff163111151561027957600080fd5b7fb5582406212e863075f036450a2fa726e6abb89143a5de26a0f9cf0581e01ba83073ffffffffffffffffffffffffffffffffffffffff163160405180806020018381526020018281038252600f8152602001807f46656573205769746864726177656400000000000000000000000000000000008152506020019250505060405180910390a13373ffffffffffffffffffffffffffffffffffffffff166108fc3073ffffffffffffffffffffffffffffffffffffffff16319081150290604051600060405180830381858888f1935050505015801561035d573d6000803e3d6000fd5b507fb5582406212e863075f036450a2fa726e6abb89143a5de26a0f9cf0581e01ba83073ffffffffffffffffffffffffffffffffffffffff16316040518080602001838152602001828103825260138152602001807f42616c616e636520696e20636f6e7472616374000000000000000000000000008152506020019250505060405180910390a1565b60016020528060005260406000206000915090505481565b3460016000838152602001908152602001600020600082825401925050819055507fd26aa5d68acd6baa84e2a118d974be6c892553e9c7c92b1199d4826edeb3484a346040518080602001838152602001828103825260118152602001807f5061796d656e7420636f6d706c657465640000000000000000000000000000008152506020019250505060405180910390a150565b60003373ffffffffffffffffffffffffffffffffffffffff166000809054906101000a900473ffffffffffffffffffffffffffffffffffffffff1673ffffffffffffffffffffffffffffffffffffffff161415156104f057600080fd5b3073ffffffffffffffffffffffffffffffffffffffff163190509056fea165627a7a723058205271165eeed34c8eb8e87ec171623b5668258d0cf3a2fc923e4c898b8f41697d0029",
  "source": "pragma solidity ^0.5.0;\n\n\n\n\n\n\n\n\n// Student Pays Fees to the Management  \n\ncontract PayingFees{\n    \n    address managementAddress;\n    mapping(uint => uint)  public  payments;\n    \n    event feesPaid(string message, uint amount);\n    event feeWithdrawed(string message, uint amount);\n     \n    constructor() public {\n        managementAddress = msg.sender;    \n    }\n    \n    modifier onlyManagement{\n        require(managementAddress == msg.sender);\n        _;\n    }\n    \n    modifier minimumBalance{\n        require(address(this).balance > 0);\n        _;\n    }\n    \n    function feePayment(uint _roll) public payable {\n        payments[_roll] += msg.value;\n        emit feesPaid(\"Payment completed\", msg.value);\n    }\n    function studentFeeDetails(uint _roll) public onlyManagement view returns (uint _feePayed){\n        _feePayed = payments[_roll];\n        \n    }\n    \n    function feeWithdraw() public onlyManagement minimumBalance {\n        emit feeWithdrawed(\"Fees Withdrawed\", address(this).balance);\n        msg.sender.transfer(address(this).balance);\n        emit feeWithdrawed(\"Balance in contract\", address(this).balance);\n    }\n    \n    function balance() public view onlyManagement returns(uint _balance) {\n        _balance = address(this).balance;\n    }\n    \n}\n\n// contract CertificateUpload {\n    \n//     mapping(uint => string) public certificateHash;\n    \n//     function setCertificate(uint _roll, string memory _certificateHash) public {\n//         certificateHash[_roll] = _certificateHash;\n//     }\n    \n// }\n\n\ncontract SchoolFundTrackingSystem is PayingFees{\n    \n    enum gender {male, female, other}\n    \n    struct profile {\n        string name;\n        uint age;\n        bool indian;\n        gender myGender;\n    }\n    \n    mapping(uint => profile) student;\n   \n    \n    function setStudent(uint _roll, string memory _name, uint _age, bool _indian, gender _myGender) public {\n        student[_roll] = profile(_name, _age, _indian, _myGender);\n    }\n    \n    function getStudent(uint _roll) public view returns (string memory _name, uint _age, bool _indian, gender _myGender){\n        _name = student[_roll].name;\n        _age = student[_roll].age;\n        _indian = student[_roll].indian;\n        _myGender = student[_roll].myGender;\n       \n     \n    }\n    \n}",
  "sourcePath": "/home/yk272/Desktop/SFTS/contracts/SFTS.sol",
  "compiler": {
    "name": "solc",
    "version": "0.5.0+commit.1d4f565a.Emscripten.clang"
  },
  "schemaVersion": "3.0.9",
  "updatedAt": "2019-05-20T05:06:53.741Z",
  "devdoc": {
    "methods": {}
  },
  "userdoc": {
    "methods": {}
  }
}