{
  "contractName": "SchoolFundTrackingSystem",
  "abi": [
    {
      "constant": true,
      "inputs": [
        {
          "name": "_roll",
          "type": "uint256"
        }
      ],
      "name": "managementContractBalance",
      "outputs": [
        {
          "name": "_balance",
          "type": "uint256"
        }
      ],
      "payable": false,
      "stateMutability": "view",
      "type": "function"
    },
    {
      "constant": true,
      "inputs": [
        {
          "name": "",
          "type": "uint256"
        },
        {
          "name": "_orderId",
          "type": "uint256"
        }
      ],
      "name": "mOrderDetailsMapping",
      "outputs": [
        {
          "name": "mfirmId",
          "type": "uint256"
        },
        {
          "name": "orderId",
          "type": "uint256"
        },
        {
          "name": "mproductDetails",
          "type": "string"
        },
        {
          "name": "mnumberOfUnits",
          "type": "uint256"
        }
      ],
      "payable": false,
      "stateMutability": "view",
      "type": "function"
    },
    {
      "constant": false,
      "inputs": [
        {
          "name": "_orderId",
          "type": "uint256"
        },
        {
          "name": "_firmAddressInput",
          "type": "address"
        }
      ],
      "name": "setFinalOrderSummary",
      "outputs": [
        {
          "name": "",
          "type": "uint256"
        }
      ],
      "payable": false,
      "stateMutability": "nonpayable",
      "type": "function"
    },
    {
      "constant": false,
      "inputs": [
        {
          "name": "_firmId",
          "type": "uint256"
        },
        {
          "name": "_firmAddressInput",
          "type": "address"
        }
      ],
      "name": "firmPaymentWithdraw",
      "outputs": [
        {
          "name": "rollNumber",
          "type": "uint256"
        },
        {
          "name": "adhaarNum",
          "type": "uint256"
        },
        {
          "name": "name",
          "type": "string"
        },
        {
          "name": "age",
          "type": "uint256"
        },
        {
          "name": "indian",
          "type": "bool"
        },
        {
          "name": "myGender",
          "type": "uint8"
        }
      ],
      "payable": false,
      "stateMutability": "nonpayable",
      "type": "function"
    },
    {
      "anonymous": false,
      "inputs": [
        {
          "indexed": false,
          "name": "",
          "type": "uint256"
        },
        {
          "indexed": false,
          "name": "amount",
          "type": "uint256"
        }
      ],
      "name": "student",
      "type": "function",
      "constant": true,
      "outputs": [
        {
          "name": "rollNumber",
          "type": "uint256"
        },
        {
          "name": "adhaarNum",
          "type": "uint256"
        },
        {
          "name": "name",
          "type": "string"
        },
        {
          "name": "age",
          "type": "uint256"
        },
        {
          "name": "indian",
          "type": "bool"
        },
        {
          "name": "myGender",
          "type": "uint8"
        }
      ],
      "payable": false,
      "stateMutability": "view"
    },
    {
      "anonymous": false,
      "inputs": [
        {
          "indexed": false,
          "name": "_roll",
          "type": "uint256"
        },
        {
          "indexed": false,
          "name": "amount",
          "type": "uint256"
        }
      ],
      "name": "studentFeeDetails",
      "type": "function",
      "constant": true,
      "outputs": [
        {
          "name": "_rollNumber",
          "type": "uint256"
        },
        {
          "name": "_feePayed",
          "type": "uint256"
        }
      ],
      "payable": false,
      "stateMutability": "view"
    },
    {
      "constant": true,
      "inputs": [
        {
          "name": "",
          "type": "uint256",
          "indexed": false
        },
        {
          "name": "amount",
          "type": "uint256",
          "indexed": false
        },
        {
          "name": "_age",
          "type": "uint256"
        },
        {
          "name": "_indian",
          "type": "bool"
        },
        {
          "name": "_myGender",
          "type": "uint8"
        }
      ],
      "name": "fOrderDetailsMapping",
      "outputs": [
        {
          "name": "ffirmAddress",
          "type": "address"
        },
        {
          "name": "orderId",
          "type": "uint256"
        },
        {
          "name": "fpriceOfOneUnit",
          "type": "uint256"
        },
        {
          "name": "ftotalPrice",
          "type": "uint256"
        },
        {
          "name": "totalPrice",
          "type": "uint256"
        }
      ],
      "payable": false,
      "stateMutability": "view",
      "type": "function",
      "anonymous": false
    },
    {
      "constant": true,
      "inputs": [
        {
          "name": "",
          "type": "address"
        },
        {
          "name": "oId",
          "type": "uint256"
        },
        {
          "name": "pDts",
          "type": "string"
        },
        {
          "name": "noOfUnits",
          "type": "uint256"
        },
        {
          "name": "pOfOneUnit",
          "type": "uint256"
        },
        {
          "name": "tP",
          "type": "uint256"
        }
      ],
      "name": "firmPaymentMapping",
      "outputs": [
        {
          "name": "",
          "type": "uint256"
        },
        {
          "name": "_age",
          "type": "uint256"
        },
        {
          "name": "_indian",
          "type": "bool"
        },
        {
          "name": "_myGender",
          "type": "uint8"
        }
      ],
      "payable": false,
      "stateMutability": "view",
      "type": "function"
    },
    {
      "constant": false,
      "inputs": [
        {
          "name": "",
          "type": "address"
        }
      ],
      "name": "feeWithdraw",
      "outputs": [
        {
          "name": "",
          "type": "uint256"
        },
        {
          "name": "_age",
          "type": "uint256"
        },
        {
          "name": "_indian",
          "type": "bool"
        },
        {
          "name": "_myGender",
          "type": "uint8"
        }
      ],
      "payable": false,
      "stateMutability": "nonpayable",
      "type": "function"
    },
    {
      "constant": true,
      "inputs": [
        {
          "name": "",
          "type": "uint256"
        }
      ],
      "name": "firmPaymentAddressStorage",
      "outputs": [
        {
          "name": "",
          "type": "address"
        }
      ],
      "payable": false,
      "stateMutability": "view",
      "type": "function"
    },
    {
      "constant": true,
      "inputs": [
        {
          "name": "",
          "type": "address"
        }
      ],
      "name": "firmAddressStorage",
      "outputs": [
        {
          "name": "",
          "type": "uint256"
        }
      ],
      "payable": false,
      "stateMutability": "view",
      "type": "function"
    },
    {
      "constant": true,
      "inputs": [
        {
          "name": "",
          "type": "uint256"
        }
      ],
      "name": "mappingAdhaar",
      "outputs": [
        {
          "name": "rollNumber",
          "type": "uint256"
        },
        {
          "name": "adhaarNum",
          "type": "uint256"
        },
        {
          "name": "name",
          "type": "string"
        },
        {
          "name": "age",
          "type": "uint256"
        },
        {
          "name": "indian",
          "type": "bool"
        },
        {
          "name": "myGender",
          "type": "uint8"
        }
      ],
      "payable": false,
      "stateMutability": "view",
      "type": "function"
    },
    {
      "constant": true,
      "inputs": [
        {
          "name": "",
          "type": "uint256"
        }
      ],
      "name": "studentAddressStorage",
      "outputs": [
        {
          "name": "",
          "type": "address"
        },
        {
          "name": "adhaarNum",
          "type": "uint256"
        },
        {
          "name": "name",
          "type": "string"
        },
        {
          "name": "age",
          "type": "uint256"
        },
        {
          "name": "indian",
          "type": "bool"
        },
        {
          "name": "myGender",
          "type": "uint8"
        }
      ],
      "payable": false,
      "stateMutability": "view",
      "type": "function"
    },
    {
      "constant": false,
      "inputs": [
        {
          "name": "_firmId",
          "type": "uint256"
        },
        {
          "name": "_firmAddress",
          "type": "address"
        },
        {
          "name": "_orderId",
          "type": "uint256"
        },
        {
          "name": "_productDetails",
          "type": "string"
        },
        {
          "name": "_numberOfUnits",
          "type": "uint256"
        }
      ],
      "name": "sendOrderDetailsToFirm",
      "outputs": [
        {
          "name": "",
          "type": "address"
        }
      ],
      "payable": false,
      "stateMutability": "nonpayable",
      "type": "function"
    },
    {
      "constant": false,
      "inputs": [
        {
          "name": "_firmAddress",
          "type": "address"
        },
        {
          "name": "_orderId",
          "type": "uint256"
        },
        {
          "name": "_priceOfOneUnit",
          "type": "uint256"
        },
        {
          "name": "_totalPrice",
          "type": "uint256"
        }
      ],
      "name": "sendOrderDetailsToSchool",
      "outputs": [],
      "payable": false,
      "stateMutability": "nonpayable",
      "type": "function"
    },
    {
      "constant": true,
      "inputs": [
        {
          "name": "_orderId",
          "type": "uint256"
        },
        {
          "name": "_firmName",
          "type": "string"
        },
        {
          "name": "_firmAddress",
          "type": "address"
        }
      ],
      "name": "getFinalOrderSummary",
      "outputs": [
        {
          "name": "_oId",
          "type": "uint256"
        },
        {
          "name": "_fId",
          "type": "uint256"
        },
        {
          "name": "_fAddress",
          "type": "address"
        },
        {
          "name": "_pDetails",
          "type": "string"
        },
        {
          "name": "_numOfUnits",
          "type": "uint256"
        },
        {
          "name": "_priceOfOneUnit",
          "type": "uint256"
        },
        {
          "name": "_totalPrice",
          "type": "uint256"
        }
      ],
      "payable": false,
      "stateMutability": "view",
      "type": "function"
    },
    {
      "constant": false,
      "inputs": [
        {
          "name": "_roll",
          "type": "uint256"
        }
      ],
      "name": "feePayment",
      "outputs": [
        {
          "name": "",
          "type": "address"
        }
      ],
      "payable": true,
      "stateMutability": "payable",
      "type": "function"
    },
    {
      "constant": false,
      "inputs": [
        {
          "name": "_firmId",
          "type": "uint256"
        },
        {
          "name": "_firmName",
          "type": "string"
        },
        {
          "name": "_firmAddress",
          "type": "address"
        }
      ],
      "name": "setFirmDetails",
      "outputs": [
        {
          "name": "_balance",
          "type": "uint256"
        }
      ],
      "payable": false,
      "stateMutability": "nonpayable",
      "type": "function"
    },
    {
      "constant": true,
      "inputs": [
        {
          "name": "",
          "type": "uint256"
        },
        {
          "name": "_toFirmAddress",
          "type": "address"
        },
        {
          "name": "_orderId",
          "type": "uint256"
        },
        {
          "name": "_productDetails",
          "type": "string"
        },
        {
          "name": "_numberOfUnits",
          "type": "uint256"
        },
        {
          "name": "_priceOfOneUnit",
          "type": "uint256"
        },
        {
          "name": "_totalPrice",
          "type": "uint256"
        }
      ],
      "name": "firmOrderAddressMapping",
      "outputs": [
        {
          "name": "",
          "type": "address"
        }
      ],
      "payable": false,
      "stateMutability": "view",
      "type": "function"
    },
    {
      "constant": true,
      "inputs": [
        {
          "name": "_firmId",
          "type": "uint256"
        },
        {
          "name": "_firmAddressInput",
          "type": "address"
        }
      ],
      "name": "firmContractBalance",
      "outputs": [
        {
          "name": "_balance",
          "type": "uint256"
        }
      ],
      "payable": false,
      "stateMutability": "view",
      "type": "function"
    },
    {
      "constant": false,
      "inputs": [
        {
          "name": "_firmId",
          "type": "uint256"
        },
        {
          "name": "_firmAddressInput",
          "type": "address"
        }
      ],
      "name": "paymentToFirm",
      "outputs": [
        {
          "name": "_fId",
          "type": "uint256"
        },
        {
          "name": "_fName",
          "type": "string"
        },
        {
          "name": "_fAddress",
          "type": "address"
        }
      ],
      "payable": true,
      "stateMutability": "payable",
      "type": "function"
    },
    {
      "constant": true,
      "inputs": [
        {
          "name": "_firmId",
          "type": "uint256"
        }
      ],
      "name": "getFirmDetails",
      "outputs": [
        {
          "name": "_fId",
          "type": "uint256"
        },
        {
          "name": "_fName",
          "type": "string"
        },
        {
          "name": "_fAddress",
          "type": "address"
        }
      ],
      "payable": false,
      "stateMutability": "view",
      "type": "function"
    },
    {
      "constant": true,
      "inputs": [
        {
          "name": "",
          "type": "uint256"
        }
      ],
      "name": "studentPaymentMapping",
      "outputs": [
        {
          "name": "",
          "type": "uint256"
        },
        {
          "name": "_productDetails",
          "type": "string"
        },
        {
          "name": "_numberOfUnits",
          "type": "uint256"
        },
        {
          "name": "_priceOfOneUnit",
          "type": "uint256"
        },
        {
          "name": "_totalPrice",
          "type": "uint256"
        }
      ],
      "payable": false,
      "stateMutability": "view",
      "type": "function"
    },
    {
      "inputs": [
        {
          "name": "",
          "type": "uint256"
        }
      ],
      "payable": false,
      "stateMutability": "view",
      "type": "function",
      "constant": true,
      "name": "finalOrderSummaryMapping",
      "outputs": [
        {
          "name": "firmId",
          "type": "uint256"
        },
        {
          "name": "orderId",
          "type": "uint256"
        },
        {
          "name": "productDetails",
          "type": "string"
        },
        {
          "name": "numberOfUnits",
          "type": "uint256"
        },
        {
          "name": "priceOfOneUnit",
          "type": "uint256"
        },
        {
          "name": "totalPrice",
          "type": "uint256"
        },
        {
          "name": "firmAddress",
          "type": "address"
        }
      ]
    },
    {
      "anonymous": false,
      "inputs": [
        {
          "indexed": false,
          "name": "message",
          "type": "string"
        },
        {
          "indexed": false,
          "name": "amount",
          "type": "uint256"
        }
      ],
      "name": "paidToFirm",
      "type": "constructor",
      "payable": false,
      "stateMutability": "nonpayable"
    },
    {
      "anonymous": false,
      "inputs": [
        {
          "indexed": false,
          "name": "message",
          "type": "string"
        },
        {
          "indexed": false,
          "name": "amount",
          "type": "uint256"
        }
      ],
      "name": "paidToFirm",
      "type": "event"
    },
    {
      "anonymous": false,
      "inputs": [
        {
          "indexed": false,
          "name": "message",
          "type": "string"
        },
        {
          "indexed": false,
          "name": "amount",
          "type": "uint256"
        }
      ],
      "name": "firmWithdrawedFromContract",
      "type": "event"
    },
    {
      "anonymous": false,
      "inputs": [
        {
          "indexed": false,
          "name": "message",
          "type": "string"
        },
        {
          "indexed": false,
          "name": "amount",
          "type": "uint256"
        }
      ],
      "name": "feesPaid",
      "type": "event"
    },
    {
      "constant": false,
      "inputs": [
        {
          "name": "message",
          "type": "string",
          "indexed": false
        },
        {
          "name": "amount",
          "type": "uint256",
          "indexed": false
        },
        {
          "name": "_name",
          "type": "string"
        },
        {
          "name": "_age",
          "type": "uint256"
        },
        {
          "name": "_indian",
          "type": "bool"
        },
        {
          "name": "_myGender",
          "type": "uint8"
        }
      ],
      "name": "feeWithdrawed",
      "outputs": [],
      "payable": false,
      "stateMutability": "nonpayable",
      "type": "event",
      "anonymous": false
    },
    {
      "constant": false,
      "inputs": [
        {
          "name": "_roll",
          "type": "uint256"
        },
        {
          "name": "_adhaarNum",
          "type": "uint256"
        },
        {
          "name": "_name",
          "type": "string"
        },
        {
          "name": "_age",
          "type": "uint256"
        },
        {
          "name": "_indian",
          "type": "bool"
        },
        {
          "name": "_myGender",
          "type": "uint8"
        }
      ],
      "name": "setStudent",
      "outputs": [],
      "payable": false,
      "stateMutability": "nonpayable",
      "type": "function"
    },
    {
      "constant": true,
      "inputs": [
        {
          "name": "_roll",
          "type": "uint256"
        }
      ],
      "name": "getStudent",
      "outputs": [
        {
          "name": "_rollNumber",
          "type": "uint256"
        },
        {
          "name": "_studentAddress",
          "type": "address"
        },
        {
          "name": "_adhaarNum",
          "type": "uint256"
        },
        {
          "name": "_name",
          "type": "string"
        },
        {
          "name": "_age",
          "type": "uint256"
        },
        {
          "name": "_indian",
          "type": "bool"
        },
        {
          "name": "_myGender",
          "type": "uint8"
        }
      ],
      "payable": false,
      "stateMutability": "view",
      "type": "function"
    }
  ],
  "bytecode": "0x608060405234801561001057600080fd5b50336000806101000a81548173ffffffffffffffffffffffffffffffffffffffff021916908373ffffffffffffffffffffffffffffffffffffffff16021790555033600260006101000a81548173ffffffffffffffffffffffffffffffffffffffff021916908373ffffffffffffffffffffffffffffffffffffffff16021790555033600b60006101000a81548173ffffffffffffffffffffffffffffffffffffffff021916908373ffffffffffffffffffffffffffffffffffffffff160217905550612856806100e26000396000f3fe608060405260043610610154576000357c0100000000000000000000000000000000000000000000000000000000900463ffffffff1680630957429a146101595780631687ca76146101845780632a15a0c41461024d5780632c4dba021461028857806335f34232146102e35780633ebebd19146103cc578063402946e2146104225780634f53328f14610521578063642f9163146105b157806365333be8146106cd5780636561e6ba1461073257806365b92f97146107495780636cb90e03146107c4578063724805581461082957806375441bfa14610912578063827a3c2c1461098d5780639234121114610a9357806395723c0714610b02578063a795310f14610c0c578063adc721ac14610c3a578063b5fe750314610d2c578063b814581e14610da7578063b8d77a6b14610dd2578063c1471dbf14610e20578063c16253de14610f0e578063dc44101c14610f5d575b600080fd5b34801561016557600080fd5b5061016e611067565b6040518082815260200191505060405180910390f35b34801561019057600080fd5b506101bd600480360360208110156101a757600080fd5b81019080803590602001909291905050506110e2565b6040518085815260200184815260200180602001838152602001828103825284818151815260200191508051906020019080838360005b8381101561020f5780820151818401526020810190506101f4565b50505050905090810190601f16801561023c5780820380516001836020036101000a031916815260200191505b509550505050505060405180910390f35b34801561025957600080fd5b506102866004803603602081101561027057600080fd5b81019080803590602001909291905050506111aa565b005b34801561029457600080fd5b506102e1600480360360408110156102ab57600080fd5b8101908080359060200190929190803573ffffffffffffffffffffffffffffffffffffffff1690602001909291905050506113ae565b005b3480156102ef57600080fd5b5061031c6004803603602081101561030657600080fd5b810190808035906020019092919050505061157b565b60405180878152602001868152602001806020018581526020018415151515815260200183600281111561034c57fe5b60ff168152602001828103825286818151815260200191508051906020019080838360005b8381101561038c578082015181840152602081019050610371565b50505050905090810190601f1680156103b95780820380516001836020036101000a031916815260200191505b5097505050505050505060405180910390f35b3480156103d857600080fd5b50610405600480360360208110156103ef57600080fd5b8101908080359060200190929190505050611669565b604051808381526020018281526020019250505060405180910390f35b34801561042e57600080fd5b5061051f600480360360c081101561044557600080fd5b8101908080359060200190929190803590602001909291908035906020019064010000000081111561047657600080fd5b82018360208201111561048857600080fd5b803590602001918460018302840111640100000000831117156104aa57600080fd5b91908080601f016020809104026020016040519081016040528093929190818152602001838380828437600081840152601f19601f82011690508083019250505050505050919291929080359060200190929190803515159060200190929190803560ff1690602001909291905050506116e6565b005b34801561052d57600080fd5b5061055a6004803603602081101561054457600080fd5b810190808035906020019092919050505061181f565b604051808573ffffffffffffffffffffffffffffffffffffffff1673ffffffffffffffffffffffffffffffffffffffff16815260200184815260200183815260200182815260200194505050505060405180910390f35b3480156105bd57600080fd5b506105ea600480360360208110156105d457600080fd5b810190808035906020019092919050505061186f565b604051808881526020018773ffffffffffffffffffffffffffffffffffffffff1673ffffffffffffffffffffffffffffffffffffffff168152602001868152602001806020018581526020018415151515815260200183600281111561064c57fe5b60ff168152602001828103825286818151815260200191508051906020019080838360005b8381101561068c578082015181840152602081019050610671565b50505050905090810190601f1680156106b95780820380516001836020036101000a031916815260200191505b509850505050505050505060405180910390f35b3480156106d957600080fd5b5061071c600480360360208110156106f057600080fd5b81019080803573ffffffffffffffffffffffffffffffffffffffff169060200190929190505050611a04565b6040518082815260200191505060405180910390f35b34801561073e57600080fd5b50610747611a1c565b005b34801561075557600080fd5b506107826004803603602081101561076c57600080fd5b8101908080359060200190929190505050611c0c565b604051808273ffffffffffffffffffffffffffffffffffffffff1673ffffffffffffffffffffffffffffffffffffffff16815260200191505060405180910390f35b3480156107d057600080fd5b50610813600480360360208110156107e757600080fd5b81019080803573ffffffffffffffffffffffffffffffffffffffff169060200190929190505050611c3f565b6040518082815260200191505060405180910390f35b34801561083557600080fd5b506108626004803603602081101561084c57600080fd5b8101908080359060200190929190505050611c57565b60405180878152602001868152602001806020018581526020018415151515815260200183600281111561089257fe5b60ff168152602001828103825286818151815260200191508051906020019080838360005b838110156108d25780820151818401526020810190506108b7565b50505050905090810190601f1680156108ff5780820380516001836020036101000a031916815260200191505b5097505050505050505060405180910390f35b34801561091e57600080fd5b5061094b6004803603602081101561093557600080fd5b8101908080359060200190929190505050611d45565b604051808273ffffffffffffffffffffffffffffffffffffffff1673ffffffffffffffffffffffffffffffffffffffff16815260200191505060405180910390f35b34801561099957600080fd5b50610a91600480360360a08110156109b057600080fd5b8101908080359060200190929190803573ffffffffffffffffffffffffffffffffffffffff1690602001909291908035906020019092919080359060200190640100000000811115610a0157600080fd5b820183602082011115610a1357600080fd5b80359060200191846001830284011164010000000083111715610a3557600080fd5b91908080601f016020809104026020016040519081016040528093929190818152602001838380828437600081840152601f19601f82011690508083019250505050505050919291929080359060200190929190505050611d78565b005b348015610a9f57600080fd5b50610b0060048036036080811015610ab657600080fd5b81019080803573ffffffffffffffffffffffffffffffffffffffff169060200190929190803590602001909291908035906020019092919080359060200190929190505050611e9f565b005b348015610b0e57600080fd5b50610b3b60048036036020811015610b2557600080fd5b8101908080359060200190929190505050611f61565b604051808881526020018781526020018673ffffffffffffffffffffffffffffffffffffffff1673ffffffffffffffffffffffffffffffffffffffff16815260200180602001858152602001848152602001838152602001828103825286818151815260200191508051906020019080838360005b83811015610bcb578082015181840152602081019050610bb0565b50505050905090810190601f168015610bf85780820380516001836020036101000a031916815260200191505b509850505050505050505060405180910390f35b610c3860048036036020811015610c2257600080fd5b81019080803590602001909291905050506120df565b005b348015610c4657600080fd5b50610d2a60048036036060811015610c5d57600080fd5b810190808035906020019092919080359060200190640100000000811115610c8457600080fd5b820183602082011115610c9657600080fd5b80359060200191846001830284011164010000000083111715610cb857600080fd5b91908080601f016020809104026020016040519081016040528093929190818152602001838380828437600081840152601f19601f820116905080830192505050505050509192919290803573ffffffffffffffffffffffffffffffffffffffff169060200190929190505050612173565b005b348015610d3857600080fd5b50610d6560048036036020811015610d4f57600080fd5b81019080803590602001909291905050506122ce565b604051808273ffffffffffffffffffffffffffffffffffffffff1673ffffffffffffffffffffffffffffffffffffffff16815260200191505060405180910390f35b348015610db357600080fd5b50610dbc612301565b6040518082815260200191505060405180910390f35b610e1e60048036036040811015610de857600080fd5b8101908080359060200190929190803573ffffffffffffffffffffffffffffffffffffffff169060200190929190505050612320565b005b348015610e2c57600080fd5b50610e5960048036036020811015610e4357600080fd5b8101908080359060200190929190505050612480565b60405180848152602001806020018373ffffffffffffffffffffffffffffffffffffffff1673ffffffffffffffffffffffffffffffffffffffff168152602001828103825284818151815260200191508051906020019080838360005b83811015610ed1578082015181840152602081019050610eb6565b50505050905090810190601f168015610efe5780820380516001836020036101000a031916815260200191505b5094505050505060405180910390f35b348015610f1a57600080fd5b50610f4760048036036020811015610f3157600080fd5b81019080803590602001909291905050506125ec565b6040518082815260200191505060405180910390f35b348015610f6957600080fd5b50610f9660048036036020811015610f8057600080fd5b8101908080359060200190929190505050612604565b60405180888152602001878152602001806020018681526020018581526020018481526020018373ffffffffffffffffffffffffffffffffffffffff1673ffffffffffffffffffffffffffffffffffffffff168152602001828103825287818151815260200191508051906020019080838360005b8381101561102657808201518184015260208101905061100b565b50505050905090810190601f1680156110535780820380516001836020036101000a031916815260200191505b509850505050505050505060405180910390f35b60003373ffffffffffffffffffffffffffffffffffffffff16600260009054906101000a900473ffffffffffffffffffffffffffffffffffffffff1673ffffffffffffffffffffffffffffffffffffffff161415156110c557600080fd5b3073ffffffffffffffffffffffffffffffffffffffff1631905090565b6008602052806000526040600020600091509050806000015490806001015490806002018054600181600116156101000203166002900480601f01602080910402602001604051908101604052809291908181526020018280546001816001161561010002031660029004801561119a5780601f1061116f5761010080835404028352916020019161119a565b820191906000526020600020905b81548152906001019060200180831161117d57829003601f168201915b5050505050908060030154905084565b6009600082815260200190815260200160002060010154600860008381526020019081526020016000206001015414156113ab576008600082815260200190815260200160002060000154600a6000838152602001908152602001600020600001819055506008600082815260200190815260200160002060010154600a60008381526020019081526020016000206001018190555060086000828152602001908152602001600020600201600a6000838152602001908152602001600020600201908054600181600116156101000203166002900461128b9291906126fe565b506008600082815260200190815260200160002060030154600a6000838152602001908152602001600020600301819055506009600082815260200190815260200160002060000160009054906101000a900473ffffffffffffffffffffffffffffffffffffffff16600a600083815260200190815260200160002060060160006101000a81548173ffffffffffffffffffffffffffffffffffffffff021916908373ffffffffffffffffffffffffffffffffffffffff1602179055506009600082815260200190815260200160002060020154600a6000838152602001908152602001600020600401819055506009600082815260200190815260200160002060030154600a6000838152602001908152602001600020600501819055505b50565b806000600660008373ffffffffffffffffffffffffffffffffffffffff1673ffffffffffffffffffffffffffffffffffffffff16815260200190815260200160002054141515156113fe57600080fd5b8173ffffffffffffffffffffffffffffffffffffffff166005600085815260200190815260200160002060009054906101000a900473ffffffffffffffffffffffffffffffffffffffff1673ffffffffffffffffffffffffffffffffffffffff1614151561146b57600080fd5b3373ffffffffffffffffffffffffffffffffffffffff166108fc3073ffffffffffffffffffffffffffffffffffffffff16319081150290604051600060405180830381858888f193505050501580156114c8573d6000803e3d6000fd5b507f99ba01a5de8e0bde23724fdce747e5981e718b8045ccca4b8ab8f09b04a2428b3073ffffffffffffffffffffffffffffffffffffffff163160405180806020018381526020018281038252602e8152602001807f57746864726177656420616d6f756e742066726f6d20636f6e7472656374207481526020017f6f206669726d20616464726573730000000000000000000000000000000000008152506040019250505060405180910390a1505050565b600c602052806000526040600020600091509050806000015490806001015490806002018054600181600116156101000203166002900480601f0160208091040260200160405190810160405280929190818152602001828054600181600116156101000203166002900480156116335780601f1061160857610100808354040283529160200191611633565b820191906000526020600020905b81548152906001019060200180831161161657829003601f168201915b5050505050908060030154908060040160009054906101000a900460ff16908060040160019054906101000a900460ff16905086565b6000803373ffffffffffffffffffffffffffffffffffffffff16600260009054906101000a900473ffffffffffffffffffffffffffffffffffffffff1673ffffffffffffffffffffffffffffffffffffffff161415156116c857600080fd5b82915060016000848152602001908152602001600020549050915091565b3373ffffffffffffffffffffffffffffffffffffffff16600260009054906101000a900473ffffffffffffffffffffffffffffffffffffffff1673ffffffffffffffffffffffffffffffffffffffff1614151561174257600080fd5b60c060405190810160405280878152602001868152602001858152602001848152602001831515815260200182600281111561177a57fe5b815250600c6000888152602001908152602001600020600082015181600001556020820151816001015560408201518160020190805190602001906117c0929190612785565b506060820151816003015560808201518160040160006101000a81548160ff02191690831515021790555060a08201518160040160016101000a81548160ff0219169083600281111561180f57fe5b0217905550905050505050505050565b60096020528060005260406000206000915090508060000160009054906101000a900473ffffffffffffffffffffffffffffffffffffffff16908060010154908060020154908060030154905084565b600080600060606000806000600c6000898152602001908152602001600020600001549650600c6000898152602001908152602001600020600101549450600c60008981526020019081526020016000206002018054600181600116156101000203166002900480601f0160208091040260200160405190810160405280929190818152602001828054600181600116156101000203166002900480156119575780601f1061192c57610100808354040283529160200191611957565b820191906000526020600020905b81548152906001019060200180831161193a57829003601f168201915b50505050509350600c6000898152602001908152602001600020600301549250600c600089815260200190815260200160002060040160009054906101000a900460ff169150600c600089815260200190815260200160002060040160019054906101000a900460ff169050600e600086815260200190815260200160002060009054906101000a900473ffffffffffffffffffffffffffffffffffffffff169550919395979092949650565b60036020528060005260406000206000915090505481565b3373ffffffffffffffffffffffffffffffffffffffff16600260009054906101000a900473ffffffffffffffffffffffffffffffffffffffff1673ffffffffffffffffffffffffffffffffffffffff16141515611a7857600080fd5b60003073ffffffffffffffffffffffffffffffffffffffff1631111515611a9e57600080fd5b7fb5582406212e863075f036450a2fa726e6abb89143a5de26a0f9cf0581e01ba83073ffffffffffffffffffffffffffffffffffffffff163160405180806020018381526020018281038252600f8152602001807f46656573205769746864726177656400000000000000000000000000000000008152506020019250505060405180910390a13373ffffffffffffffffffffffffffffffffffffffff166108fc3073ffffffffffffffffffffffffffffffffffffffff16319081150290604051600060405180830381858888f19350505050158015611b82573d6000803e3d6000fd5b507fb5582406212e863075f036450a2fa726e6abb89143a5de26a0f9cf0581e01ba83073ffffffffffffffffffffffffffffffffffffffff16316040518080602001838152602001828103825260138152602001807f42616c616e636520696e20636f6e7472616374000000000000000000000000008152506020019250505060405180910390a1565b60056020528060005260406000206000915054906101000a900473ffffffffffffffffffffffffffffffffffffffff1681565b60066020528060005260406000206000915090505481565b600d602052806000526040600020600091509050806000015490806001015490806002018054600181600116156101000203166002900480601f016020809104026020016040519081016040528092919081815260200182805460018160011615610100020316600290048015611d0f5780601f10611ce457610100808354040283529160200191611d0f565b820191906000526020600020905b815481529060010190602001808311611cf257829003601f168201915b5050505050908060030154908060040160009054906101000a900460ff16908060040160019054906101000a900460ff16905086565b600e6020528060005260406000206000915054906101000a900473ffffffffffffffffffffffffffffffffffffffff1681565b836000600660008373ffffffffffffffffffffffffffffffffffffffff1673ffffffffffffffffffffffffffffffffffffffff1681526020019081526020016000205414151515611dc857600080fd5b3373ffffffffffffffffffffffffffffffffffffffff16600260009054906101000a900473ffffffffffffffffffffffffffffffffffffffff1673ffffffffffffffffffffffffffffffffffffffff16141515611e2457600080fd5b608060405190810160405280878152602001858152602001848152602001838152506008600086815260200190815260200160002060008201518160000155602082015181600101556040820151816002019080519060200190611e89929190612785565b5060608201518160030155905050505050505050565b6080604051908101604052808573ffffffffffffffffffffffffffffffffffffffff168152602001848152602001838152602001828152506009600085815260200190815260200160002060008201518160000160006101000a81548173ffffffffffffffffffffffffffffffffffffffff021916908373ffffffffffffffffffffffffffffffffffffffff160217905550602082015181600101556040820151816002015560608201518160030155905050611f5b836111aa565b50505050565b600080600060606000806000600a6000898152602001908152602001600020600101549650600a6000898152602001908152602001600020600001549550600a600089815260200190815260200160002060060160009054906101000a900473ffffffffffffffffffffffffffffffffffffffff169450600a60008981526020019081526020016000206002018054600181600116156101000203166002900480601f0160208091040260200160405190810160405280929190818152602001828054600181600116156101000203166002900480156120825780601f1061205757610100808354040283529160200191612082565b820191906000526020600020905b81548152906001019060200180831161206557829003601f168201915b50505050509350600a6000898152602001908152602001600020600301549250600a6000898152602001908152602001600020600401549150600a6000898152602001908152602001600020600501549050919395979092949650565b3460016000838152602001908152602001600020600082825401925050819055507fd26aa5d68acd6baa84e2a118d974be6c892553e9c7c92b1199d4826edeb3484a346040518080602001838152602001828103825260118152602001807f5061796d656e7420636f6d706c657465640000000000000000000000000000008152506020019250505060405180910390a150565b3373ffffffffffffffffffffffffffffffffffffffff16600260009054906101000a900473ffffffffffffffffffffffffffffffffffffffff1673ffffffffffffffffffffffffffffffffffffffff161415156121cf57600080fd5b6060604051908101604052808481526020018381526020018273ffffffffffffffffffffffffffffffffffffffff168152506004600085815260200190815260200160002060008201518160000155602082015181600101908051906020019061223a929190612785565b5060408201518160020160006101000a81548173ffffffffffffffffffffffffffffffffffffffff021916908373ffffffffffffffffffffffffffffffffffffffff16021790555090505082600660008373ffffffffffffffffffffffffffffffffffffffff1673ffffffffffffffffffffffffffffffffffffffff16815260200190815260200160002081905550505050565b60076020528060005260406000206000915054906101000a900473ffffffffffffffffffffffffffffffffffffffff1681565b60003073ffffffffffffffffffffffffffffffffffffffff1631905090565b3373ffffffffffffffffffffffffffffffffffffffff16600260009054906101000a900473ffffffffffffffffffffffffffffffffffffffff1673ffffffffffffffffffffffffffffffffffffffff1614151561237c57600080fd5b806000600660008373ffffffffffffffffffffffffffffffffffffffff1673ffffffffffffffffffffffffffffffffffffffff16815260200190815260200160002054141515156123cc57600080fd5b600034141515156123dc57600080fd5b34600360008473ffffffffffffffffffffffffffffffffffffffff1673ffffffffffffffffffffffffffffffffffffffff16815260200190815260200160002060008282540192505081905550816005600085815260200190815260200160002060006101000a81548173ffffffffffffffffffffffffffffffffffffffff021916908373ffffffffffffffffffffffffffffffffffffffff160217905550505050565b6000606060003373ffffffffffffffffffffffffffffffffffffffff16600260009054906101000a900473ffffffffffffffffffffffffffffffffffffffff1673ffffffffffffffffffffffffffffffffffffffff161415156124e257600080fd5b60046000858152602001908152602001600020600001549250600460008581526020019081526020016000206001018054600181600116156101000203166002900480601f0160208091040260200160405190810160405280929190818152602001828054600181600116156101000203166002900480156125a55780601f1061257a576101008083540402835291602001916125a5565b820191906000526020600020905b81548152906001019060200180831161258857829003601f168201915b505050505091506004600085815260200190815260200160002060020160009054906101000a900473ffffffffffffffffffffffffffffffffffffffff1690509193909250565b60016020528060005260406000206000915090505481565b600a602052806000526040600020600091509050806000015490806001015490806002018054600181600116156101000203166002900480601f0160208091040260200160405190810160405280929190818152602001828054600181600116156101000203166002900480156126bc5780601f10612691576101008083540402835291602001916126bc565b820191906000526020600020905b81548152906001019060200180831161269f57829003601f168201915b5050505050908060030154908060040154908060050154908060060160009054906101000a900473ffffffffffffffffffffffffffffffffffffffff16905087565b828054600181600116156101000203166002900490600052602060002090601f016020900481019282601f106127375780548555612774565b8280016001018555821561277457600052602060002091601f016020900482015b82811115612773578254825591600101919060010190612758565b5b5090506127819190612805565b5090565b828054600181600116156101000203166002900490600052602060002090601f016020900481019282601f106127c657805160ff19168380011785556127f4565b828001600101855582156127f4579182015b828111156127f35782518255916020019190600101906127d8565b5b5090506128019190612805565b5090565b61282791905b8082111561282357600081600090555060010161280b565b5090565b9056fea165627a7a72305820893fc63337491ffb91a3b1ada4dd2f1127b7b776894151ebcdcedc9a36d3568a0029",
  "source": "pragma solidity ^0.5.0;\n\ncontract FirmAndFunctions{\n                                                // Variables //\n    \n    \n  \n    address managementAddress;\n    \n    \n                                        //          Mappings          //\n                                        \n                                        \n                                        \n    mapping(address => uint)  public  firmPaymentMapping;\n    // mapping(uint=>orderDetails) public orderDetailsMapping;\n    mapping(uint=>firmProfile) firmProfileMapping;\n    mapping(uint=>address) public firmPaymentAddressStorage;\n    mapping(address=>uint) public firmAddressStorage;\n    mapping(uint=>address) public firmOrderAddressMapping;\n   \n        \n        constructor() public {\n            managementAddress=msg.sender;\n        }    \n        \n                                        // Modifiers //\n        \n         modifier onlyManagement{\n        require(managementAddress==msg.sender);\n        _;\n    }\n    \n     modifier minimumBalance{\n        require(address(this).balance > 0);\n        _;\n    }\n     modifier checkAddress(address who) { \n        require(firmAddressStorage[who] != 0); \n        _; \n        \n    }\n    \n  \n    \n       \n                                            // Structures//\n                             \n      struct firmProfile{\n          \n        uint firmId;\n        string firmName;\n        address firmAddress;\n        \n    }\n    \n   \n       struct mOrderDetails{\n        \n        uint mfirmId;\n        uint orderId;\n        string mproductDetails;\n        uint mnumberOfUnits;\n       }\n       mapping(uint=>mOrderDetails) public mOrderDetailsMapping;\n       function sendOrderDetailsToFirm(uint _firmId,address _firmAddress,uint _orderId,string memory _productDetails,uint _numberOfUnits) public checkAddress(_firmAddress) onlyManagement{\n           mOrderDetailsMapping[_orderId]=mOrderDetails(_firmId,_orderId,_productDetails,_numberOfUnits);\n       } \n       \n       struct fOrderDetails{\n        \n       address ffirmAddress;\n        uint orderId;\n        uint fpriceOfOneUnit;\n        uint ftotalPrice;\n        \n       }\n       mapping(uint=>fOrderDetails) public fOrderDetailsMapping;\n       function sendOrderDetailsToSchool(address _firmAddress,uint _orderId,uint _priceOfOneUnit,uint _totalPrice) public\n       {\n           fOrderDetailsMapping[_orderId]=fOrderDetails(_firmAddress,_orderId,_priceOfOneUnit,_totalPrice);\n           setFinalOrderSummary(_orderId);\n       }\n       \n struct finalOrderSummary\n    {\n        uint firmId;\n        uint orderId;\n        string productDetails;\n        uint numberOfUnits;\n        uint priceOfOneUnit;\n        uint totalPrice;\n        address firmAddress;\n       \n    }\n    mapping(uint => finalOrderSummary) public finalOrderSummaryMapping;\n    \n    function setFinalOrderSummary(uint _orderId)public{\n        \n        if(mOrderDetailsMapping[_orderId].orderId==fOrderDetailsMapping[_orderId].orderId)\n        {\n            \n            finalOrderSummaryMapping[_orderId].firmId=mOrderDetailsMapping[_orderId].mfirmId;\n            \n            finalOrderSummaryMapping[_orderId].orderId=mOrderDetailsMapping[_orderId].orderId;\n            finalOrderSummaryMapping[_orderId].productDetails=mOrderDetailsMapping[_orderId].mproductDetails;\n            finalOrderSummaryMapping[_orderId].numberOfUnits=mOrderDetailsMapping[_orderId].mnumberOfUnits;\n            finalOrderSummaryMapping[_orderId].firmAddress=fOrderDetailsMapping[_orderId].ffirmAddress;\n            finalOrderSummaryMapping[_orderId].priceOfOneUnit=fOrderDetailsMapping[_orderId].fpriceOfOneUnit;\n            finalOrderSummaryMapping[_orderId].totalPrice=fOrderDetailsMapping[_orderId].ftotalPrice;\n        \n        }\n        \n        \n        \n    }\n    function getFinalOrderSummary(uint _orderId) public view returns(uint _oId,uint _fId,address _fAddress,string memory _pDetails,uint _numOfUnits,uint _priceOfOneUnit,uint _totalPrice)\n    {\n        _oId=finalOrderSummaryMapping[_orderId].orderId;\n        _fId=finalOrderSummaryMapping[_orderId].firmId;\n        _fAddress=finalOrderSummaryMapping[_orderId].firmAddress;\n        _pDetails=finalOrderSummaryMapping[_orderId].productDetails;\n        _numOfUnits=finalOrderSummaryMapping[_orderId].numberOfUnits;\n        _priceOfOneUnit=finalOrderSummaryMapping[_orderId].priceOfOneUnit;\n        _totalPrice=finalOrderSummaryMapping[_orderId].totalPrice;\n    }\n    \n                     \n    \n   \n    \n                                      //             Events          //\n                                      \n    \n    event paidToFirm(string message, uint amount);\n    event firmWithdrawedFromContract(string message, uint amount);\n    \n    \n    \n   \n                                                // Functions //\n      \n   \n                                            // Management Function #10 //\n              \n     function setFirmDetails(uint _firmId,string memory _firmName,address _firmAddress) public onlyManagement{\n        \n        firmProfileMapping[_firmId]=firmProfile(_firmId,_firmName,_firmAddress);\n        firmAddressStorage[_firmAddress]=_firmId;\n        \n      }\n      \n                                        //  Management Function #9 //\n                                        \n      function getFirmDetails(uint _firmId) public onlyManagement view returns(uint _fId,string memory _fName,address _fAddress)\n      {\n          _fId=firmProfileMapping[_firmId].firmId;\n          _fName=firmProfileMapping[_firmId].firmName;\n          _fAddress=firmProfileMapping[_firmId].firmAddress;\n      }\n    \n    \n   \n                                        // Management Function #8 //\n                                        \n     function paymentToFirm(uint _firmId,address _firmAddressInput) public onlyManagement checkAddress(_firmAddressInput) payable  {\n        require(msg.value!=0);\n        firmPaymentMapping[_firmAddressInput] += msg.value;\n        firmPaymentAddressStorage[_firmId]=_firmAddressInput;\n        \n     }      \n     \n                                    // Firm Function #4 //\n                                    \n      function firmContractBalance() public view returns(uint _balance) {\n        _balance = address(this).balance;\n    }\n                                        // Firm Function #3 //\n                                        \n                                        \n    function firmPaymentWithdraw(uint _firmId,address _firmAddressInput) public checkAddress(_firmAddressInput){\n        require(firmPaymentAddressStorage[_firmId]==_firmAddressInput);\n        msg.sender.transfer(address(this).balance);\n        emit firmWithdrawedFromContract(\"Wthdrawed amount from contrect to firm address\",address(this).balance);\n  \n        \n    }\n                                        // Management Function #7 //\n                                        \n                                        \n    // function sendOrderDetailsToFirm(uint _firmId,address _toFirmAddress,uint _orderId,string memory _productDetails,uint _numberOfUnits,uint _priceOfOneUnit,uint _totalPrice) public onlyManagement checkAddress(_toFirmAddress){\n    //     orderDetailsMapping[_orderId]=orderDetails(_orderId,_productDetails,_numberOfUnits,_priceOfOneUnit,_totalPrice);\n    //     firmOrderAddressMapping[_firmId]=_toFirmAddress;\n        \n    // }\n                                        // Firm Function #2  //\n                                        \n    // function getOrderDetailsFromSchool(uint _firmId,uint _orderId) public view returns(uint _oId,string memory _productDetails,uint _numOfUnits){\n    //     require(firmOrderAddressMapping[_firmId] == msg.sender);\n    //     _oId = orderDetailsMapping[_orderId].orderId;\n    //     _productDetails = orderDetailsMapping[_orderId].productDetails;\n    //     _numOfUnits = orderDetailsMapping[_orderId].numberOfUnits;\n    // }\n    \n                                        //  Firm Function #1   //\n                                        \n                                        \n    // function sendOSummaryToSchool(uint fId,uint oId,string memory pDts,uint noOfUnits,uint pOfOneUnit,uint tP) public checkAddress(msg.sender) {\n    //     require(firmOrderAddressMapping[fId] == msg.sender);\n        \n        \n    //     orderDetailsMapping[oId] = orderDetails(oId,pDts,noOfUnits,pOfOneUnit,tP);\n        \n    // }\n                                         //  Management Function #6 //\n                                \n                                \n    // function getOrderSummaryFromFirm(uint _orderId) public onlyManagement view returns(uint _oId,string memory _productDetails,uint _numOfUnits,uint _priceOfOneUnit,uint _totalPrice){\n    //     _oId=orderDetailsMapping[_orderId].orderId;\n    //     _productDetails=orderDetailsMapping[_orderId].productDetails;\n    //     _numOfUnits=orderDetailsMapping[_orderId].numberOfUnits;\n    //     _priceOfOneUnit=orderDetailsMapping[_orderId].priceOfOneUnit;\n    //     _totalPrice=_numOfUnits*_priceOfOneUnit;\n    // }\n    \n                                    // Student Function #3  //\n                                    \n                                    \n                                    \n    // function getOrderDetailsForStudent(uint _orderId) public view returns (uint _oId,string memory _productDetails, uint _numberOfUnits,uint _priceOfOneUnit,uint _totalPrice){\n    //     _oId=orderDetailsMapping[_orderId].orderId;\n    //     _productDetails = orderDetailsMapping[_orderId].productDetails;\n    //     _numberOfUnits = orderDetailsMapping[_orderId].numberOfUnits;\n    //     _priceOfOneUnit = orderDetailsMapping[_orderId].priceOfOneUnit;\n    //     _totalPrice = orderDetailsMapping[_orderId].totalPrice;\n    // }\n                                        \n  \n    \n}\n                                        // CONTRACT //\n\n\n                    // Student Pays Fees to the Management //\n\ncontract StudentPaysFee{\n                                        //  Variables //\n                                        \n    address managementAddress;\n    \n                                        // Mappings //\n                                        \n    mapping(uint => uint)  public  studentPaymentMapping;\n    \n    \n    \n    \n    \n                                    //   Events     //\n                                    \n    event feesPaid(string message, uint amount);\n    event feeWithdrawed(string message, uint amount);\n     \n     \n    \n     \n     \n    constructor() public{\n        managementAddress = msg.sender;    \n    }\n                                    //  Modifiers //\n                                    \n                                    \n    modifier onlyManagement{\n        require(managementAddress == msg.sender);\n        _;\n    }\n    \n    modifier minimumBalance{\n        require(address(this).balance > 0);\n        _;\n    }\n    \n                        // Student Function #2 //\n                        \n    function feePayment(uint _roll) public payable {\n        studentPaymentMapping[_roll] += msg.value;\n        emit feesPaid(\"Payment completed\", msg.value);\n    }\n    \n                            // Management Function #5 //\n                            \n    function studentFeeDetails(uint _roll) public onlyManagement view returns (uint _rollNumber,uint _feePayed){\n        _rollNumber=_roll;\n        _feePayed = studentPaymentMapping[_roll];\n        \n        \n    }\n                            //  Management Function #4 //\n                            \n    function feeWithdraw() public onlyManagement minimumBalance {\n        emit feeWithdrawed(\"Fees Withdrawed\", address(this).balance);\n        msg.sender.transfer(address(this).balance);\n        emit feeWithdrawed(\"Balance in contract\", address(this).balance);\n    }\n                            \n                            //  Management Function #3 //\n                            \n    function managementContractBalance() public view onlyManagement returns(uint _balance) {\n        _balance = address(this).balance;\n    }\n    \n}\n\n\n\n                            //  SFTS Contract Inherits all the other contracts //\n\ncontract SchoolFundTrackingSystem is StudentPaysFee,FirmAndFunctions{\n    \n    enum gender {male, female, other}\n    address managementAddress;\n    constructor() public {\n        managementAddress=msg.sender;\n    }\n    modifier notManagement{\n        require(msg.sender!=managementAddress);\n        _;\n    }\n    struct studentProfile {\n        uint rollNumber;\n        uint adhaarNum;\n        string name;\n        uint age;\n        bool indian;\n        gender myGender;\n    }\n    \n    mapping(uint => studentProfile) public  student;\n    mapping(uint=>studentProfile) public mappingAdhaar;\n    mapping(uint=>address) public studentAddressStorage;\n    \n   \n                                         // Management Function #1//\n                                         \n    function setStudent(uint _roll,uint _adhaarNum,string memory _name,uint _age,bool _indian,gender _myGender) public onlyManagement {\n        student[_roll]=studentProfile(_roll,_adhaarNum,_name,_age,_indian,_myGender);\n        \n        \n       \n    }\n                                        // Student Function #1 //\n    // function studentDetailsFillUp(uint _roll,uint _adhaarNum,string memory _name,uint _age,bool _indian,gender _myGender) public notManagement{\n    //      mappingAdhaar[_adhaarNum]=studentProfile(_roll,_adhaarNum,_name,_age,_indian,_myGender);\n    //      studentAddressStorage[_adhaarNum]=msg.sender;\n         \n         \n    // }\n                                        // Management Function #2 //\n    \n    function getStudent(uint _roll) public view returns (uint _rollNumber,address _studentAddress,uint _adhaarNum,string memory _name, uint _age, bool _indian, gender _myGender){\n       \n        _rollNumber=student[_roll].rollNumber;   \n        _adhaarNum=student[_roll].adhaarNum;\n        _name = student[_roll].name;\n        _age = student[_roll].age;\n        _indian = student[_roll].indian;\n        _myGender = student[_roll].myGender;\n        _studentAddress=studentAddressStorage[_adhaarNum];\n     \n    }\n    \n}",
  "sourcePath": "/home/yk272/Desktop/SFTS/contracts/SFTS.sol",
  "compiler": {
    "name": "solc",
    "version": "0.5.0+commit.1d4f565a.Emscripten.clang"
  },
  "schemaVersion": "3.0.9",
  "updatedAt": "2019-05-28T08:00:13.871Z",
  "devdoc": {
    "methods": {}
  },
  "userdoc": {
    "methods": {}
  }
}